S0130000636F6F7264656E61646F722E7372656381
S11300000C94B4000C94D3000C94D3000C94D3003F
S11300100C94D3000C94D3000C94D3000C949E1A2B
S11300200C94D3000C94D3000C94D3000C94D30000
S11300300C94D3000C94D3000C94D3000C94C105FD
S11300400C94D3000C94D3000C94AD030C94D30003
S11300500C94D3000C94D3000C94D3000C94D300D0
S11300600C94D3000C94D3000C94C61A0C94D300B3
S11300700C94D3000C94D3000C94DB030C94D300A5
S11300800C94D3000C94D3000C94D3007A01CB01CC
S1130090D20111024A02C502FA026C197519C61975
S11300A0C619C619C6197A199B19AE19C619B119F8
S11300B0B419B719BD19436F6E74696B692D322E6B
S11300C0362D323435302D6765616138373630204E
S11300D0737461727465642E204E6F646520696464
S11300E02025750A0025640A0025642E0052696DD6
S11300F06520737461727465642077697468206123
S1130100646472657373200025732025732C206347
S113011068616E6E656C20636865636B20726174E0
S11301206520256420487A2C20726164696F2063FD
S113013068616E6E656C2025640A004D414320257C
S11301403032783A253032783A253032783A2530D0
S113015032783A253032783A253032783A253032BE
S1130160783A253032780A0011241FBECFEFD0E14F
S1130170DEBFCDBF12E0A0E0B1E0E2E6F2E500E0D0
S11301800BBF02C007900D92AE39B107D9F71FE03B
S1130190AEE9B2E001C01D92AE38B107E1F70E94AA
S11301A06B040C942F290C94000082E00C94390702
S11301B0CF93DF93EB01888190E0E4ECF2E02191AE
S11301C0319128173907D9F124E0E43CF207B9F753
S11301D0E091C404F091C504CF0101969093C50445
S11301E08093C404EE0FFF1FEC53FD4F888190E011
S11301F0918380838091C8049091C90486309105CD
S113020011F0892BE1F48091C2029091C30201960E
S11302109093C3028093C2020E94800D9F938F9398
S113022088811F928F9386E791E09F938F930E941A
S11302309B250F900F900F900F900F900F90DF91D0
S1130240CF910895FC0101900020E9F7BF01681BDC
S1130250790B0E94EF0D8AEA92E00E94C90B81E0BB
S113026090E09093A9028093A8020895CF93DF931E
S113027000D0CDB7DEB79A838983CB01FB0101900F
S11302800020E9F7BF01681B790B0E94EF0D6FE2B4
S11302907FE0CE0101960E94F10C892B69F4BE0126
S11302A06F5F7F4F85EB92E00E94DE0C81E090E06F
S11302B09093A9028093A8020F900F90DF91CF91A1
S11302C00895AF92BF92CF92DF92EF92FF920F9375
S11302D01F93CF93DF9300D0CDB7DEB7E091C8046E
S11302E0F091C904E730F10508F08EC1EA5BFF4FD5
S11302F00C94822362E27DE08DE791E00E946B25FD
S1130300892BF9F062E27DE082E991E00E946B259D
S1130310892B49F481E090E09093C9048093C80448
S11303200E94610112C062E27DE081EA91E00E94D4
S11303306B25892B51F484E090E09093C904809359
S1130340C8048FE891E00E94D72562E27DE08BEA41
S113035091E00E946B25892B51F485E090E0909305
S1130360C9048093C8048BEA91E00E94220162E2EE
S11303707DE081EB91E00E946B25892B09F044C15B
S113038086E090E09093C9048093C80481EB91E0E7
S11303900E94220139C186EB91E00E94220182E091
S11303A090E03AC087EC91E09F938F930E949B2545
S11303B00F900F9004ED11E0E091A602F091A702D6
S11303C08091C4049091C504E817F907BCF4CF01E7
S11303D001969093A7028093A602EE0FFF1FEC53A1
S11303E0FD4F81818F9380818F931F930F930E9480
S11303F09B250F900F900F900F90DECF8AE090E036
S11304000E94D1251092A7021092A60286EB91E0D9
S11304100E94220183E090E09093C9048093C80471
S1130420F3C087EC91E09F938F930E949B250F90DC
S11304300F9004ED11E0E091A602F091A7028091E3
S1130440C4049091C504E817F907BCF4CF010196E0
S11304509093A7028093A602EE0FFF1FEC53FD4F6B
S113046081818F9380818F931F930F930E949B258B
S11304700F900F900F900F90DECF8AE090E00E94D3
S1130480D1251092A7021092A60288ED91E00E9455
S1130490D725B6C080E290E00E9488238C0184E0D6
S11304A090E00E9488236C018AE090E00E948823F7
S11304B05C0182E29DE00E9429259A838983E12CD4
S11304C0F12C6CED71E0CE0101960E947B25BC01FC
S11304D0009759F1E114F10449F4DB010D90002077
S11304E0E9F7AD01461B570BC80119C0B1E0EB1683
S11304F0F10449F4FB0101900020E9F7AF01461B28
S1130500570BC6010CC0F2E0EF16F10451F4DB0105
S11305100D900020E9F7AD01461B570BC5010E9461
S11305205025BFEFEB1AFB0ACCCF6CED71E0C8018C
S11305300E946025B501C8010E946025B6018EEDB8
S113054091E00E946B25892B41F481EA91E00E949D
S11305502201C8010E9422010EC0C6010E940B257F
S1130560F82E61EA71E090E00E943601B8018F2D07
S113057090E00E943601C8010E942024C6010E9416
S11305802024C5010E9420243BC080EE91E09F936B
S11305908F930E949B250F900F9004ED11E0E09142
S11305A0A602F091A7028091C4049091C504E817B3
S11305B0F907BCF4CF0101969093A7028093A60299
S11305C0EE0FFF1FEC53FD4F81818F9380818F933A
S11305D01F930F930E949B250F900F900F900F90E5
S11305E0DECF8AE090E00E94D1251092A7021092FB
S11305F0A60206C08091C2029091C302029724F021
S11306001092C9041092C80480E091E0E2E2FDE097
S1130610DF019C011D9221503040E1F71092C70484
S11306201092C60480E092E0E4ECF2E0DF019C0169
S11306301D9221503040E1F71092C5041092C40479
S11306400F900F90DF91CF911F910F91FF90EF903A
S1130650DF90CF90BF90AF900895CF93DF93EC01DC
S1130660633821F48AEA92E00E94C70B8881998159
S1130670883E910541F18D3E910509F445C0892BD1
S1130680E9F581E090E00E949E0560E973E080E076
S11306900E944C044BEE51E061E870E08AEA92E07B
S11306A00E94AD0B4FEE51E062E970E085EB92E001
S11306B00E94C40C62E070E08EE992E00E94EC08B3
S11306C088EE90E018C08EE992E00E94F608892B2B
S11306D0C9F08091A8029091A902019759F710924C
S11306E0A9021092A80260E071E08EE992E00E94F3
S11306F0EC088DEE90E09983888304C019821882F7
S113070083E00BC081E009C08EE992E00E94F60804
S1130710892BC1F30E946101CDCFDF91CF91089560
S11307202091C6043091C704A9014F5F5F4F5093D5
S1130730C7044093C604F901EE5DF24F8083882319
S113074011F08A3039F43093C7042093C604108220
S11307500E94610181E090E008951F920F920FB60C
S11307600F9211240BB60F922F933F934F935F93E5
S11307706F937F938F939F93AF93BF93EF93FF9365
S11307808CB1E091240FF091250F309709F0099571
S1130790FF91EF91BF91AF919F918F917F916F9155
S11307A05F914F913F912F910F900BBE0F900FBE11
S11307B00F901F9018951F920F920FB60F9211244D
S11307C00BB60F922F933F934F935F936F937F9347
S11307D08F939F93AF93BF93EF93FF9380919C006C
S11307E0E091220FF091230F309709F00995FF91C2
S11307F0EF91BF91AF919F918F917F916F915F9195
S11308004F913F912F910F900BBE0F900FBE0F9001
S11308101F90189581110CC01092900069B988E955
S11308208AB9409395001092250F1092240F0895D1
S1130830813069F4109298006093990088E980935C
S11308409A0040939D001092230F1092220F089556
S1130850811104C05D9BFECF6CB90895813031F4E1
S113086080919B0085FFFCCF60939C000895CF93FB
S1130870C82F8A3031F46DE08091CA040E942804A4
S113088002C08D3029F06C2F8091CA040E94280484
S113089080E090E0CF910895811105C07093250FF9
S11308A06093240F0895813021F47093230F609393
S11308B0220F08958093CA0482E191E090938B0FF4
S11308C080938A0F089546E063E080E00E940A0462
S11308D080E00C945A040E94240784E00E942907B3
S11308E00E9463040E94190681E00E9429070E9465
S11308F06D060E9473052091260F8091CB04909180
S1130900CC04820F911D0E9420070E94C20A0E94FB
S1130910EB0960E070E088E291E00E94950A0E9491
S1130920B40782E00E9429070E94B0048091CC049D
S11309308F938091CB048F9386EB90E09F938F935A
S11309400E94AD2587E00E94310783EF91E00E9469
S113095041070F900F900F900F900E94FD09FDCF5B
S1130960EF92FF920F931F93CF93DF93CDB7DEB730
S113097028970FB6F894DEBF0FBECDBF8091CB048D
S11309809091CC04009739F480912D0F8983809144
S11309902C0F8A8302C089839A838E010F5F1F4FB5
S11309A0C8010E94FD0C8DEE90E09F938F930E94EE
S11309B0AD2589811F928F9389EE90E09F938F9349
S11309C00E94AD258A811F928F9385EE90E09F93BC
S11309D08F930E94AD250E94211AE0902F0FF12CD5
S11309E0FE2CEE248091300FE80EF11C88E0F80113
S11309F011928A95E9F76FE27FE0C8010E94EA0C40
S1130A0088851F928F938F811F928F938E811F925F
S1130A108F938D811F928F938C811F928F938B81E3
S1130A201F928F938A811F928F9389811F928F9334
S1130A308BE391E09F938F930E94AD25A801B701AA
S1130A408DEC9BEA0E943618E0913202F091330259
S1130A500995E0911D02F0911E020995E0910602AC
S1130A60F0910702099500913E0210913F02F801AE
S1130A7009950FB6F894DEBF0FBECDBF892B41F0A8
S1130A80F8010995BC0180E890E00E946E2302C041
S1130A9060E870E01F928AE18F937F936F93809157
S1130AA031028F93809130028F9380911C028F9337
S1130AB080911B028F9388E091E09F938F930E9413
S1130AC0AD250FB6F894DEBF0FBECDBF28960FB686
S1130AD0F894DEBF0FBECDBFDF91CF911F910F9170
S1130AE0FF90EF900895CF93DF9300D000D01F9232
S1130AF0CDB7DEB78FB78D83F89444E050E0BE01E4
S1130B006F5F7F4F80E090E00E94190789819A818E
S1130B108D3A9E4D19F48B819C8102C080E090E057
S1130B209093CC048093CB048D818FBF0F900F9052
S1130B300F900F900F90DF91CF910895CF93DF9393
S1130B4000D000D01F92CDB7DEB72DEA3EED3A8338
S1130B5029839C838B838FB78D83F89444E050E082
S1130B60BE016F5F7F4F80E090E00E9412078D818D
S1130B708FBF0F900F900F900F900F90DF91CF9138
S1130B8008951F920F920FB60F9211240BB60F9275
S1130B902F933F934F935F936F937F938F939F9381
S1130BA0AF93BF93EF93FF938091D3049091D404B8
S1130BB001969093D4048093D3048091D1049091AE
S1130BC0D20401969093D2048093D1048038910585
S1130BD0B9F41092D2041092D1048091CD04909172
S1130BE0CE04A091CF04B091D0040196A11DB11DF3
S1130BF08093CD049093CE04A093CF04B093D004FB
S1130C000E940109892B11F00E943608FF91EF918F
S1130C10BF91AF919F918F917F916F915F914F9110
S1130C203F912F910F900BBE0F900FBE0F901F900E
S1130C301895F89487B78C7F87BF80B7886080BF8A
S1130C408BE083BF12BE88E081BF16BE80B7877079
S1130C50E9F787B7826087BF1092D4041092D30457
S1130C60789408958091D3049091D4042091D3046E
S1130C703091D40482179307A9F70895009751F08F
S1130C8022E330E000002150310921153105D1F76C
S1130C900197F4CF089528E030E080E090E04AE046
S1130CA050E060E170E0A5E6B0E0D49ADC98FA0187
S1130CB03197F1F7D498DC9AFB013197F1F7CC998D
S1130CC08068FD013197F1F7215031092115310573
S1130CD019F096958795E9CF0895EF92FF920F93B7
S1130CE01F93CF93DF931F92CDB7DEB7D498DC98D0
S1130CF08FB78983F894D49ADC9889E993E00197B3
S1130D00F1F7D498DC9A80E890E00197F1F729B3E1
S1130D1083EF92E00197F1F724FD71C0B8E0A3E3FB
S1130D202EE630E042E150E06AE070E0E5E7F0E012
S1130D30D49ADC98A0FF07C0CB010197F1F7D498AF
S1130D40DC9ACF0106C0C9010197F1F7D498DC9A67
S1130D50CA010197F1F7B15011F0A695E9CF0E94AD
S1130D604B068C018EE2E82E8FE0F82E0E944B0693
S1130D70D7018E937D01B8E2EB16BFE0FB06B1F715
S1130D800E944B0629812FBF01301105D1F528E0BF
S1130D9030E0A8015695479500FF04C08A01ECE8AD
S1130DA00E2701C08A01215031092115310589F727
S1130DB0EEE2FFE02291022728E030E0A8015695F8
S1130DC0479500FF04C08A016CE8062701C08A0128
S1130DD0215031092115310589F7AFE0E832FA07CE
S1130DE049F70817190769F41092260F8AE18093CE
S1130DF0270F8CE48093280F81E090E00BC0898159
S1130E008FBF88E0E6E2FFE0DF011D928A95E9F7F3
S1130E1080E090E00F90DF91CF911F910F91FF90B0
S1130E20EF9008959C01CB01E199FECFB9010C9498
S1130E300F289C01CB01E199FECFB9010C94FF2747
S1130E400C9400250C94FC240E9495151092D50452
S1130E5008959091D504982B9093D504892F0C94E0
S1130E609C1580959091D50489238093D5040C9486
S1130E709C159091D50498279093D504892F0C94B0
S1130E809C15CF93DF93EC0189919991009729F0F8
S1130E9060E070E00E94950AF7CFDF91CF9108954A
S1130EA0EF92FF920F931F93CF93DF938C017A01FC
S1130EB0FC0180819181009741F08A34910501F110
S1130EC0F8011182108283E048C087ED94E00E940B
S1130ED00B0BEC01209751F06C817D81CE010296C1
S1130EE00E94EC080990D881C02DF4CF81E0809352
S1130EF0D6048AE490E0F8019183808381E02DC0D8
S1130F006838E1F787ED94E00E940B0BEC01209721
S1130F1081F3CE010296E816F906D9F4BE0187EDF5
S1130F2094E00E941F0BE0901105F09012058A8551
S1130F309B859093120580931105EC85FD85309770
S1130F4019F08E859F850995F0921205E09211059E
S1130F50D0CF0990D881C02DDACFDF91CF911F91E6
S1130F600F91FF90EF9008951092D60487ED94E0CE
S1130F700E94070B60E070E080E291E00C94950A17
S1130F800F931F93CF93DF93EC0100911105109100
S1130F9012051B870A875D874C873F872E878091C0
S1130FA0D604882379F080E291E09093120580932F
S1130FB01105CE0102960E94EC08109312050093CD
S1130FC0110502C07D836C83BE0187ED94E0DF913F
S1130FD0CF911F910F910C943A0BCF93DF93EC01B7
S1130FE08091D604882329F0CE0102960E940C0930
S1130FF004C01F821E8219861886BE0187ED94E004
S1131000DF91CF910C941F0B8091DB049091DC0451
S1131010892B29F41092DA041092D90408950E94BD
S11310203206E091DB04F091DC04228133814081BB
S11310305181240F351F281B390B0480F581E02DC5
S1131040309769F04281538160817181460F571F47
S1131050481B590B4217530780F79A01EECF280F0C
S1131060391F3093DA042093D904089588E291E07B
S11310700C94B60AEF92FF920F931F93CF93DF93D2
S11310808C01FC0180819181009799F0893591054B
S1131090D9F0F8011182108283E068C086819781BB
S11310A08417950709F049C00480F581E02D309735
S11310B0A9F71092DC041092DB0489E590E0F801B2
S11310C09183808381E052C0673891F16238A9F737
S11310D0C091DB04D091DC04E12CF12C209769F35E
S11310E0CE010E94EF0A892BF1F0AE0168E88E81EF
S11310F09F810E94600A892BA1F41F821E828C8129
S11311009D81E114F10421F0F7019583848304C0E7
S11311109093DC048093DB041D821C820E940408EB
S1131120D7CF0E9436087E010C80DD81C02DD6CF3A
S1131130E091DB04F091DC04BACFF093DC04E0939B
S1131140DB04A481B581109709F4B7CF16968D916D
S11311509C9117978417950711F0FD01F2CF14960F
S11311608D919C91159795838483EBCFDF91CF91DB
S11311701F910F91FF90EF900895CF93DF93EC01AF
S11311800E9436088E819F813091DB042091DC041B
S1131190892B91F0E32FF22F309771F0EC17FD07B4
S11311A039F480911105909112059783868310C0BC
S11311B00480F581E02DF0CF809111059091120506
S11311C09F838E833C832D83D093DC04C093DB0404
S11311D0DF91CF910C940408CF93DF93EC010E942C
S11311E0E30ACE01DF91CF910C94BD0821E030E0F9
S11311F0FC0186819781892B11F020E030E0C90140
S1131200089581E090E02091DB043091DC04232BED
S113121011F480E090E00895CF93DF93EC01E09126
S1131220DB04F091DC048E179F0769F48C819D81A7
S11312309093DC048093DB040DC0848195818C172A
S11312409D0721F0FC013097C1F706C08C819D8178
S1131250958384830E9404081D821C821F821E823F
S1131260DF91CF9108951F93CF93DF93EC01162F55
S1131270EA81FB813097D1F0909312058093110598
S113128082E08E83CE0104960995992787FD909577
S11312900297029710F0133839F4BE01CE01DF91A2
S11312A0CF911F910C94600981E08E83DF91CF91DF
S11312B01F910895FC01268120FD0C9433090895A3
S11312C0CF92DF92EF92FF920F931F93CF93DF930E
S11312D0EC016B01E0901105F090120500911305EB
S11312E010911405F801EC17FD0739F0309709F453
S11312F04AC00190F081E02DF6CF209709F443C055
S11313008E81882309F11E820115110561F0C01731
S1131310D10729F0AE0167E8C8010E945A09F80113
S113132000811181F1CFEA81FB81309769F0CC15FE
S1131330DD0551F0D0931205C093110540E050E053
S113134063E8CE0104960995E0911305F091140524
S1131350CE17DF0769F488819981909314058093EF
S113136013050DC0808191818C179D0721F0FC012C
S11313703097C1F704C08881998191838083F0926A
S11313801205E0921105DF91CF911F910F91FF900B
S1131390EF90DF90CF9008951F93CF93DF93109237
S11313A0E504C0911305D091140511E0209779F05C
S11313B08F81882341F01E831F8240E050E062E861
S11313C0CE010E9433090990D881C02DEFCFDF915F
S11313D0CF911F9108958AE88093100510920E050D
S11313E010920F0510922E0F1092140510921305EF
S11313F0109212051092110508958091E50481114F
S11314000E94CC0970910F05772309F451C0E09133
S11314100E052E2F30E085E0E89FF0011124EA51FB
S1131420FB4F60816093E404418152815093E30453
S11314304093E204838194819093E1048093E004D7
S11314402F5F3F4F2770332720930E057150709301
S11314500F05009731F58091130590911405909331
S1131460DF048093DE048091DE049091DF04892BF5
S1131470F9F08091E50481110E94CC094091E204C5
S11314805091E3046091E4048091DE049091DF04C0
S11314900E945A09E091DE04F091DF048081918179
S11314A0DECF613819F421E0FC0126830E945A0939
S11314B08091E50420910F0590E0820F911D08951D
S11314C020910F052830E1F0E0910E05E20FE7705E
S11314D0E093DD0435E0E39FF0011124EA51FB4F72
S11314E06083528341839483838381E0820F80935A
S11314F00F0590912E0F981730F480932E0F03C090
S113150081E090E0089580E090E00895CF93DF9328
S1131510C0911105D09112050E945A09D093120569
S1131520C0931105DF91CF910895AB01309113055C
S113153020911405E32FF22FE817F907B1F0309743
S113154021F00190F081E02DF7CF009771F0FC01BC
S113155030832183909314058093130521E026831F
S11315601582148261E80C94860A0895009749F064
S1131570FC0126812150223020F421E0278320938E
S1131580E50408950C94F31A8091150590911605BD
S11315900097C1F01092160510921505DC011496FF
S11315A06D917C9115971296ED91FC911397099585
S11315B0E0911505F0911605309721F08081918115
S11315C00C940F1B0895CF93DF93EC017B836A8304
S11315D00E94320699838883DF91CF910895CF9337
S11315E0DF93EC010E94320628813981821B930B20
S11315F09C012F5F3F4F81E090E04A815B8142175D
S1131600530710F080E090E0DF91CF910895FC0142
S1131610118210820895FC01808191810895DC017A
S1131620ED91FC91309731F080819181009729F000
S1131630FC01FACF80E090E00895CF010895DC0129
S1131640ED91FC913097A9F0A0E0B0E020813181C8
S1131650E617F70741F4109709F4DC012D933C9346
S11316601182108208952115310519F0DF01F90165
S1131670EDCF08950F931F93CF93DF938C01EB016C
S11316800E941F0B19821882C8010E940F0B009739
S113169011F4F80101C0FC01D183C083DF91CF9123
S11316A01F910F9108950F931F93CF93DF93EC0134
S11316B08B010E941F0B88819981F801918380839B
S11316C019830883DF91CF911F910F910895DC0155
S11316D0ED91FC9180E090E0309729F00196019023
S11316E0F081E02DF9CF0895009721F0FC0180816D
S11316F09181089580E090E00895DC011996ED91C0
S1131700FC911A970280F381E02D309709F0099437
S113171008950F931F93CF93DF9300D0CDB7DEB717
S11317208C0161E37FE0CE0101960E94EA0CD801AE
S11317301996ED91FC911A970190F081E02D309764
S113174029F0BE016F5F7F4FC80109950F900F907C
S1131750DF91CF911F910F910895EF92FF920F9314
S11317601F93CF93DF93EC018B017A0147EF51E094
S11317700E942C1CFA86E9866BEF71E0C801DF91A8
S1131780CF911F910F91FF90EF900C94FF0B0C944D
S1131790441CCF93DF93EC016FE27FE081E39FE091
S11317A00E94EA0CCE01DF91CF910C94461C87E194
S11317B095E00C94070BFC0173836283BC0187E101
S11317C095E00C943A0BBC0187E195E00C941F0B57
S11317D0CF93DF93EC0187E195E00E940B0B009718
S11317E049F0FC01228133812C173D0729F00E9426
S11317F0740BF5CF80E090E0DF91CF9108950F93C3
S11318001F93CF93DF938B010E94E80BEC010097A9
S113181031F01D830C83C8010E94BC1D8E83DF91AF
S1131820CF911F910F910895CF92DF92EF92FF9283
S11318300F931F93CF93DF937C018B016A0189E19E
S113184095E00E940B0BEC01009751F0EC81FD81B7
S1131850309711F0C8010995CE010E94740BF3CFA3
S1131860A601B801C701DF91CF911F910F91FF909D
S1131870EF90DF90CF900C94541C0F931F93CF9351
S1131880DF9300D0CDB7DEB70E94951D8C0189E1AE
S113189095E00E940B0B009779F0DC011296ED9114
S11318A0FC911397309729F089839A8309959A813B
S11318B089810E94740BEFCF0115110549F0C8010D
S11318C00F900F90DF91CF911F910F910C94481CB2
S11318D00F900F90DF91CF911F910F9108950E9467
S11318E0460E0E94DC0D0E94601C0E94931D2FEF87
S11318F031E040E05EE160E072E082E090E00C9470
S11319006D1DCF93DF93EC010E94A41D009761F03D
S11319100E94020DE0914C02F0914D02BE0184E15F
S11319209CE0099581E090E0DF91CF910895DC017E
S11319301B96ED91FC911C970280F381E02D30976A
S113194009F0099408950F931F93CF93DF93EC014B
S11319508B016FE27FE083E39FE00E94F10C892B0F
S113196071F0EB85FC850190F081E02D309739F022
S1131970B801CE01DF91CF911F910F910994DF91AE
S1131980CF911F910F910895EF92FF920F931F93A0
S1131990CF93DF93EC018B017A014AE052E00E947D
S11319A0AD0BFC86EB866EE072E0C801DF91CF914F
S11319B01F910F91FF90EF900C94FF0BCF93DF9347
S11319C0EC0183E39FE00E94EA0CCE01DF91CF910A
S11319D00C94C90BFB0120813181FC0131832083EC
S11319E0089542E050E00E94432521E030E0892B35
S11319F011F020E030E0C9010895BC018FE29FE0BE
S1131A000C94EA0C2091CE053091CF0521153105B7
S1131A10B9F08091D0059091D105C096EDE4F5E040
S1131A20AF014D5155404817590734F4DF01A20F57
S1131A30B31F4C914193F4CF1092CF051092CE0571
S1131A400895CF92DF92EF92FF920F931F93CF935B
S1131A50DF937C01C090D005D090D1056091CD0575
S1131A6070E0E601E096C61BD70BC138D105D8F467
S1131A7000E310E0061B170B635E7A4FA8010E9477
S1131A80502560911B0570911C058091CE059091A5
S1131A90CF05680F791FA601C701800F911F0E940F
S1131AA05025CE0102C080E090E0DF91CF911F91DC
S1131AB00F91FF90EF90DF90CF9008954091D00563
S1131AC05091D1054817590798F02091CE053091CF
S1131AD0CF05280F391F3093CF052093CE05481B1F
S1131AE0590B5093D1054093D00581E090E00895BF
S1131AF080E090E008959093D1058093D0050895F7
S1131B008091CE059091CF05835B9A4F0895809183
S1131B10CD0590E0835E9A4F08958091D005909111
S1131B20D105089580E39091CD05891B11F480912E
S1131B30CE0508950E94920D2091D0053091D105D3
S1131B40A901480F511DCA0108951F93CF93DF9334
S1131B50EC011091CD05812F90E08C179D076CF05E
S1131B600E949A0D8C0F9D1F8138910530F41C1B27
S1131B701093CD0581E090E002C080E090E0DF9119
S1131B80CF911F910895CF93DF93E9E3FFE0119282
S1131B9011928FE0ED36F807D1F7C1E3DFE064E19D
S1131BA072E0CE010E94EA0C22968FE0C933D80776
S1131BB0B1F7DF91CF9108951092CF051092CE0521
S1131BC01092D1051092D00580E38093CD058DE469
S1131BD095E090931C0580931B050C94C30DEF9224
S1131BE0FF920F931F93CF93DF9300D0CDB7DEB74F
S1131BF08C0169837A830E94DC0D6981E62E7A81E7
S1131C00F72E81E8E816F10418F080E8E82EF12CAC
S1131C10A701B80180911B0590911C050E945025D5
S1131C20F092D105E092D005C7010F900F90DF919B
S1131C30CF911F910F91FF90EF90089524E3E9E372
S1131C40FFE0DC0101900D922A95E1F788E0E1E3E1
S1131C50FFE0DB0101900D928A95E1F7089524E3FA
S1131C60FC01A9E3BFE001900D922A95E1F788E019
S1131C70FB01A1E3BFE001900D928A95E1F708957D
S1131C8064E172E083E39FE00C94F10C80E391E063
S1131C900E94A71B88E391E00C94A71B0F931F934A
S1131CA0CF93DF9388E391E00E94C51B8C010097DA
S1131CB009F180E391E00E94C51BEC01F8019183D6
S1131CC08083009731F4B80188E391E00E94EA1B15
S1131CD011C00E94210DFE01E058FF4F91838083C3
S1131CE0BE016A547F4FCE018E579F4F0E941E0E35
S1131CF0C80102C080E090E0DF91CF911F910F9165
S1131D000895FC0180819181BC016A547F4F8E57F4
S1131D109F4F0C941E0ECF93DF93EC01BC0188E31C
S1131D2091E00E940F1C892B69F06881798180E31E
S1131D3091E00E94EA1BBE0188E391E0DF91CF911C
S1131D400C94EA1BDF91CF910895CF93DF93EC01BC
S1131D50BC0188E391E00E940F1C892BA9F0099033
S1131D60D881C02DFE01E058FF4F60817181CE0102
S1131D700E94EF0DBE016A547F4FCE018E579F4FD4
S1131D80DF91CF910C942F0EDF91CF910895FC0138
S1131D9020818181E22FF82FE60FF11DE60FF11D5E
S1131DA0EE57FF4F808191810895E0915002F091A8
S1131DB051020994E0913A02F0913B020994E091B6
S1131DC03C02F0913D020994E0913E02F0913F0201
S1131DD0309709F0099480E090E00895CF93DF9361
S1131DE0EC01009789F0888D998D0E940B0B009768
S1131DF059F0E0913602F0913702AC01BE0189EB53
S1131E0090E1DF91CF910994DF91CF910895EF9202
S1131E10FF920F931F93CF93DF9300D0CDB7DEB71C
S1131E208C01FC01458980915C0190915D0150E039
S1131E308417950708F4AC0150936E0F40936D0F0F
S1131E40EE24E394F12C02C0EE0CFF1C4A95E2F759
S1131E50F1E0EF1AF108E0913E02F0913F0209959A
S1131E60009711F481E090E08E9DB0018F9D700D7C
S1131E709E9D700D11246115710549F069837A8363
S1131E800E94220769817A810E946E23BC01980115
S1131E904EEE5EE0C80104960F900F90DF91CF9153
S1131EA01F910F91FF90EF900C94C00788E491E08C
S1131EB00E94A71B80E491E00E94A71B80E591E0AB
S1131EC00C94A71B9F92AF92BF92CF92DF92EF9296
S1131ED0FF920F931F93CF93DF935C018B01EA0171
S1131EE0DB011496ED91FC911597E080F180C2809E
S1131EF0D3809C886115710599F1888D998D0E9414
S1131F001F0BF801828193810E948B0ED8011496D5
S1131F106D917C91159780E491E00E94EA1BB801D1
S1131F2088E491E00E94EA1B888D998D0E940B0B36
S1131F30892B41F01C8A8091910C8D8BCE010E94DB
S1131F40070F0EC0CE0104960E94ED07BE0185EE78
S1131F509BE00E941F0BBE0180E591E00E94EA1BFA
S1131F60292D30E0A501B601C701DF91CF911F9162
S1131F700F91FF90EF90DF90CF90BF90AF909F9024
S1131F800C948111CF92DF92EF92FF920F931F93E3
S1131F90CF93DF937C016B018091E40B811109C025
S1131FA081E08093E40B0E9422079093E30B8093DB
S1131FB0E20B8091E20B9091E30B892B31F481E0E9
S1131FC090E09093E30B8093E20B8091E20B90916D
S1131FD0E30B9C012F5F3F4F3093E30B2093E20B05
S1131FE090934E0F80934D0F85EE9BE00E940B0B58
S1131FF0EC01009761F063E37FE0CE0102960E945A
S1132000F10C892B19F5CE010E94740BF1CF80E5F8
S113201091E00E94C51BEC01009709F49AC063E3A8
S11320207FE0CE0102960E94EA0C1C8A8091910CFA
S11320308D8BCE014696998F888F1F8A1E8A0E94A7
S1132040070BBE0185EE9BE00E943A0B888D998DAB
S11320500E94670B08970CF07CC088E491E00E9412
S1132060C51B8C01009709F464C080E491E00E94D0
S1132070C51BD80115969C938E931497892B09F44C
S113208053C00E944E0EF801938382830480F5812D
S1132090E02D892B09F443C080914B0F90914C0F94
S11320A0009719F4809158018F5F8483F182E08254
S11320B0D382C2822091530F3091540F888D998D11
S11320C0B8012130310519F40E94530B02C00E945B
S11320D03A0B888D998D0E940B0B0817190719F478
S11320E0CE010E94070F8091890C90918A0CA091D7
S11320F08B0CB0918C0C0196A11DB11D8093890CA1
S113210090938A0CA0938B0CB0938C0CDF91CF919D
S11321101F910F91FF90EF90DF90CF900895BF0132
S113212080E491E00E94EA1BB80188E491E00E94F7
S1132130EA1B888D998D0E94670B892B51F4BE018F
S113214085EE9BE00E941F0BBE0180E591E00E949A
S1132150EA1B21E030E044E050E0B601C701DF9122
S1132160CF911F910F91FF90EF90DF90CF900C943F
S11321708111DF92EF92FF920F931F93CF93DF931E
S1132180EC018B01D42E009709F4B3C0888D998D8E
S11321900E940B0B7C01009709F4ABC06AE0D701E5
S11321A012968D919C9113970E94C70E20914D0F0A
S11321B030914E0F8217930721F0C7010E94740BD0
S11321C0E9CFD7011496ED91FC911597309709F456
S11321D090C00130110509F441C01CF50115110529
S11321E009F07BC000918D0C10918E0C20918F0C06
S11321F03091900C0F5F1F4F2F4F3F4F00938D0C6A
S113220010938E0C20938F0C3093900C8091910C32
S11322108D8B8C898D0D8C8BAE01B70180E090E0A5
S11322205FC00230110529F00330110509F461C0C3
S113223054C08091910C8D8B8C898D0D8C8B9481E5
S1132240891728F0AE01B70182E090E049C0CE01C1
S11322500E94070FF7018281938136C00091850C9B
S11322601091860C2091870C3091880C0F5F1F4FC2
S11322702F4F3F4F0093850C1093860C2093870CAF
S11322803093880C2D892D0D2D8B30E080915A01CF
S113229090915B018217930730F48091910C8D8BA0
S11322A08C898F5F8C8B9C898481981728F0AE0170
S11322B0B70181E090E014C0CE010E94070FD7015E
S11322C012968D919C911397DF91CF911F910F914D
S11322D0FF90EF90DF900C94810EAE01B701C8011E
S11322E0DF91CF911F910F91FF90EF90DF900C94AD
S11322F0620FDF91CF911F910F91FF90EF90DF90CC
S11323000895FC01CB01BA01309711F0A901099499
S1132310089580E190E008958091D40C882361F0C1
S11323208091D00C811108C081E08093D00CE091A1
S11323306402F0916502099408958091D40C882375
S113234079F08091D00C882359F08091A90C8111E7
S113235007C01092D00CE0916602F09167020994D4
S113236008958091D10C811106C08091D30C811104
S113237002C00E949D118CE79FE00C94231B1092D5
S1132380D40C892B29F0E0916402F091650204C019
S1132390E0916602F091670209942091D40C222303
S11323A069F0009711F481E090E020E030E040E033
S11323B052E1BC0183E99CE00C94C007089510929B
S11323C0D00C1092D30C1092D60C1092D50C81E044
S11323D08093D40C86EC9CE00E94070B8EE591E080
S11323E00E94A71B8FE090E00C94CD1181E08093B4
S11323F0D40C8FE090E00E94CD1181E090E008952C
S11324008091A90C8823D1F0809188009091890053
S11324102091A30C3091A40C821B930B97FD0EC04A
S11324201092A90C64E172E087EA9CE00E94EA0C35
S113243064E172E085EA9CE00E94EA0C8091D50C8C
S11324409091D60C8B3221E0920701F18A3321E07E
S1132450920711F0892B91F58091D20C882329F0F1
S11324608091D20C81508093D20C8091D10C811137
S113247006C08091D30C811102C00E948C1180E0AF
S113248090E00E94CD118BE291E012C0809168012E
S113249090916901892B01F30E94B1118091D30CB1
S11324A0811112C08FE090E00E94CD118AE391E087
S11324B09093D60C8093D50C81E008951092D60C9D
S11324C01092D50C83E008958091D30C8F5F809394
S11324D0D30C8091D30C833028F31092D30C0E9438
S11324E0B111E0CF2F923F924F925F926F927F9201
S11324F08F929F92AF92BF92CF92DF92EF92FF9210
S11325000F931F93CF93DF93CDB7DEB7EE970FB63C
S1132510F894DEBF0FBECDBF5C014B018091D20C9D
S11325208111BAC16FE27FE081E39FE00E94EA0C6F
S11325300E94400E3C01E0918802F09189020995C5
S11325408C0197FD60C12C0142E0440E511C53E301
S1132550451651040CF057C10E94870DA801BC0117
S1132560CE0101960E945025E1E0F0E0EC0FFD1F42
S1132570E00FF11F1082FE01E00FF11F80E1828362
S11325800E94020D0E944E0E7C01009709F43EC188
S11325908091A90C8130B1F467EA7CE083E39FE089
S11325A00E94F10C892B89F465EA7CE083E39FE0C7
S11325B00E94F10C31E020E0892B09F430E0032F74
S11325C0122F05C000E010E002C001E010E080918D
S11325D0530F9091540F029731F581E08093A90C29
S11325E064E172E087EA9CE00E94F10C63E37FE01F
S11325F0892B19F087EA9CE00AC087EA9CE00E94D4
S1132600F10C892B31F463E37FE085EA9CE00E94BE
S1132610EA0C8091880090918900805E934E90939B
S1132620A40C8093A30C0E949D1186EC9CE00E9454
S11326300B0B6C0194E8292E93E0392EC114D104BC
S113264091F1B6016E5F7F4F83E39FE00E94F10C2E
S1132650892B21F14091880050918900F6018481F1
S113266095812091530F3091540F21303105B1F0F1
S11326702091A90C211112C09A012A553109841BF9
S1132680950BB1010E946E23280F391F8091880099
S113269090918900821B930B97FDF8CFC6010E948D
S11326A0740B6C01CBCFCC24C394D12C672811F4C8
S11326B0C12CD12C81E08093D10C409188005091A1
S11326C0890058AF4FAB0E948C11012B09F005C152
S11326D00E94221B0091880010918900312C612CEA
S11326E040915C0250915D025AAF49AF40918C0217
S11326F050918D025CAF4BAF40915A0250915B02F6
S11327005EAB4DAB809188009091890020916A0165
S113271030916B014FA958AD240F351F821B930BC9
S1132720712C97FFDDC080918800909189002091E1
S11327306C0130916D01821B930B801B910B97FFF1
S113274013C040918800509189005CAB4BAB0E9450
S1132750DC0D0E94800D60E870E0E9ADFAAD0995EA
S11327601816190604F703C080E090E026C00E9402
S11327707B0DEBADFCAD099597FD13C00E94800D58
S1132780FC012181808181110BC0233149F46FE266
S11327907FE083E39FE00E94F10C892B29F401C0C0
S11327A0739480E090E004C03BA86CA881E090E0C2
S11327B0892B09F4B8CF81E090E000918800109152
S11327C08900892B31F571108BC0C114D10491F0AB
S11327D0C7010E94A50E0E949A0DBC018DAF7EAF69
S11327E00E94870D6DAD7EADEDA9FEA909950E94ED
S11327F09D1188CFB201CE010196EDA9FEA90995DC
S11328000E948C117FCF45E050E048C044E050E086
S113281045C08091570F9091580F892B09F0B2C091
S113282080916B0F90916C0F892B09F0ABC0809154
S1132830530F9091540F029709F4A4C001E010E0E3
S11328400E949D11C7010E94A50EC7010E948B0E14
S1132850C114D10409F047C00115110509F043C0A2
S11328608091A90C81113FC00E94211B88EC9CE03F
S11328700E94231B88EC9CE00E94891B88EC9CE04E
S11328800E947F1B1092D10C772009F45AC08091CA
S1132890D20C8F5F8093D20C41E050E021E030E015
S11328A0B401C5010E948111EE960FB6F894DEBF03
S11328B00FBECDBFDF91CF911F910F91FF90EF908D
S11328C0DF90CF90BF90AF909F908F907F906F904C
S11328D05F904F903F902F900895712C312C612C74
S11328E000E010E0ADCF71100CC0E0905A02F090FF
S11328F05B020E949A0D2C010E94870DB201F70120
S113290009950115110509F4AFCF8091A90C811126
S1132910ABCF86EC9CE00E940B0B7C010097D9F0B6
S1132920B7016E5F7F4F83E39FE00E94F10C892B18
S113293021F0F7013482658297CFC7010E94740B9E
S1132940ECCFCD2829F4012B19F442E050E0A6CFB6
S113295040E050E0A3CF8EE591E00E94C51B7C01CE
S1132960009709F481CF63E37FE0C70102960E94D8
S1132970EA0CF70134826582B70186EC9CE00E9480
S11329803A0B72CF0E948C1181E08093D30C01E04A
S113299010E058CF0F931F93CF93DF9300D0CDB7A0
S11329A0DEB78C014115510591F0FA0182819381C2
S11329B069837A830E94A50E69817A81C8010F9088
S11329C00F90DF91CF911F910F910C9472120F9081
S11329D00F90DF91CF911F910F9108950F931F9343
S11329E0CF93DF93E0918C02F0918D02099597FDCE
S11329F080C00E94800DEC018881882361F11092CF
S1132A00D20C6FE27FE083E39FE00E94F10C892BFC
S1132A10C9F00E949D1188EC9CE00E94231B88EC65
S1132A209CE00E94891B88EC9CE00E947F1B109212
S1132A30D30CE0912102F0912202DF91CF911F91FA
S1132A400F91099464E172E083E39FE00E94F10C2A
S1132A50892BF9F64EC08981803109F04AC082E0A1
S1132A608093D20C6FE27FE083E39FE00E94F10C3D
S1132A70892B71F183E1898361E37FE083E39FE044
S1132A800E94EA0C6FE27FE081E39FE00E94EA0C7F
S1132A900E94020DE0918802F0918902099597FD48
S1132AA028C081E08093D20C8093D30C0E948C11B7
S1132AB0C0915A02D0915B020E949A0D8C010E942F
S1132AC0870DB801FE01DF91CF911F910F910994F9
S1132AD064E172E083E39FE00E94F10C892B49F0EA
S1132AE081E08093D30CDF91CF911F910F910C94CF
S1132AF08C11DF91CF911F910F910895FC010994DE
S1132B0021E030E03093620F2093610FE0911F02C7
S1132B10F0912002099481E090E00895E091080288
S1132B20F0910902099480E008958AB387608ABB12
S1132B308BB387608BBB08959BB3987F82FF02C0E1
S1132B4030E001C034E080FF02C020E001C022E098
S1132B508695817041E08427892B832B822B8BBB44
S1132B60089581E090E0089581E090E00895C09890
S1132B708FB9779BFECFC09A0895C09880648FB9AF
S1132B80779BFECF8FB11FB8779BFECF8FB190E0BC
S1132B90982F88271FB8779BFECF2FB1C09A822B1E
S1132BA00895C0988FB9779BFECF7FB9779BFECFEE
S1132BB06FB9779BFECF1FB8779BFECFC09A08955D
S1132BC0C098E62FE068EFB9779BFECF76956795BE
S1132BD0607C6FB9779BFECF232B89F460E0262FAE
S1132BE030E02417350748F4FC01E20FF31F20817D
S1132BF02FB9779BFECF6F5FF2CFC09A089520E084
S1132C0030E0542F521BC9F3FC01E50FF11D31973D
S1132C1050815FB9779BFECF2F5F3F4FF2CFC098B3
S1132C202EE32FB9779BFECF40E0242F30E0261708
S1132C30370748F4FC01E20FF31F20812FB9779B7B
S1132C40FECF4F5FF2CFC09A0895C0981FB8779B0C
S1132C50FECF8FB1C09A08951F93CF93DF93182F9F
S1132C60C0918800D09189000E942516812351F4D7
S1132C702091880030918900205D32402C1B3D0B4F
S1132C8037FDF2CFDF91CF911F910895CF93DF935A
S1132C90C0918800D09189000E94251683FF0AC044
S1132CA08091880090918900805D92408C1B9D0BDF
S1132CB097FDF2CFDF91CF91089589B7806489BFE2
S1132CC083E090E00E94B71581E08093DC0C0895C6
S1132CD0CF93C82F85E190E00E94BD15BC01607EB2
S1132CE0CF716C2B85E190E0CF910C94D11580B31A
S1132CF08295817090E0089581B186FB882780F9E0
S1132D0090E00895C0982FE72FB9779BFECF2FB19D
S1132D1040E0242F30E02617370754F41FB8779B80
S1132D20FECF5FB1FC01E20FF31F50834F5FF1CF81
S1132D3081E090E00E943E06C09A0895CF93DF930D
S1132D401F92CDB7DEB761E070E0CE0101960E941C
S1132D50821688E090E00E94B71588E090E00E9417
S1132D60B7150F90DF91CF9108951092DC0C0E945B
S1132D70461686E090E00E94B71589B78F7B89BF1D
S1132D800E9B0C949E1608958091D90C813081F489
S1132D908091D80C882321F00E945D161092D80CE3
S1132DA08091D70C882321F00E94B5161092D70C7D
S1132DB08091D90C81508093D90C0895EF92FF92A1
S1132DC00F931F93CF93DF931F92CDB7DEB78C0180
S1132DD0F62EE72E8091D90C8F5F8093D90C89E071
S1132DE090E00E94B71582E08F0D898361E070E066
S1132DF0CE0101960E940F166F2D7E2DC8010E94F0
S1132E000F160E94C41680E090E00F90DF91CF91DE
S1132E101F910F91FF90EF900895EF92FF920F93FF
S1132E201F93CF93DF9300D01F92CDB7DEB78C01F1
S1132E307B010E9B4DC08091D90C8F5F8093D90C80
S1132E4061E070E0CE0103960E9482166B818DEFE3
S1132E50860F8D37C8F570E062507109E616F706E3
S1132E6098F1C8010E94821662E070E0CE010196DA
S1132E700E9482168A8187FF14C029812D522093D3
S1132E806F0F8F778093760F332727FD309530931C
S1132E90420F2093410F90E09093400F80933F0F97
S1132EA002C082E08B830E9B09C0B79903C00E94C5
S1132EB09E1604C08EE691E00E94B60A0E94C416D3
S1132EC08B8190E0029706C00E949E160E94C41651
S1132ED080E090E00F900F900F90DF91CF911F91C1
S1132EE00F91FF90EF900895CF93DF93EC018881C9
S1132EF09981009701F18836934021F01982188254
S1132F0083E01EC06238D9F40E94DC0D8091DD0C90
S1132F109091DE0C9093440F8093430F0E94800D98
S1132F2060E870E00E940D170E947B0DE09138026A
S1132F30F0913902099588E693E09983888381E0CA
S1132F40DF91CF9108958091DC0C81110FC08091A5
S1132F50D90C882321F081E08093D80C07C081E04C
S1132F608093D90C0E945D160E94C41681E090E003
S1132F700895CF938091DC0C8823B1F08091D90C13
S1132F80882321F081E08093D70C0EC0C1E0C09368
S1132F90D90C0E94251683FF03C0C093D70C02C02E
S1132FA00E94B5160E94C41681E090E0CF91089566
S1132FB01F93CF93DF938091D90C811118C081E0C6
S1132FC08093D90C8091DC0C811105C00E94A31759
S1132FD0C1E0D0E002C0C0E0D0E08091DC0C8111FF
S1132FE008C00E94C416CD2B11F00E94B91781E0CD
S1132FF00EC082E00E942C1610B316FB112710F9A4
S1133000CD2B11F00E94B9170E94C416812F90E0B5
S1133010DF91CF911F910895CF93DF93EC018091BD
S1133020D90C8F5F8093D90CD093DB0CC093DA0C4E
S11330300E9446162B9785E08C9FB0018D9F700DE2
S113304011246B597E4B88E190E00E94D115809148
S1133050DC0C882321F083E090E00E94B7150E94E5
S1133060C41681E090E0DF91CF9108950F931F93F0
S1133070CF93DF9300D000D0CDB7DEB79A83898396
S11330807C836B838A018091D90C8F5F8093D90CE8
S113309020E030E042E050E068E671E0CE010196C5
S11330A00E94E01520E030E042E050E06AE671E082
S11330B0CE0103960E94E0150115110549F021E0A7
S11330C030E048E050E060E671E0C8010E94E0159D
S11330D00E94C4160F900F900F900F90DF91CF9124
S11330E01F910F91089580E488BF8EE691E00E94BD
S11330F0B60A8091700F9091710F9093DE0C8093BB
S1133100DD0C81E090E008959091D90C9F5F90933D
S1133110D90C0E9468160C94C416CF93DF93809147
S1133120D90C8F5F8093D90C85E190E00E94BD1586
S1133130EC010E94C416CE018F719927DF91CF91C3
S11331400895FF920F931F93CF93DF9300D0CDB7D1
S1133150DEB78C018091D90C8F5F8093D90C80915C
S1133160450F9091460F892B49F00E948D18F82E37
S11331708091450F81500E94681601C0F12C83E0B4
S113318090E00E94B71582E00E942C1685E090E042
S11331900E94B71524EF31E0849B37C02091700F53
S11331A03091710F3A8329832091530F3091540F3A
S11331B02430310559F4B8016150710920E030E040
S11331C042E050E0CE0101960E94E0150E942516CF
S11331D083FD05C00E94C41682E090E025C00E94D1
S11331E046168091DC0C811102C00E94B516209114
S11331F0450F3091460F232B19F08F2D0E9468162E
S11332000E94C41680E090E00FC0215031092115BE
S1133210310511F62091450F3091460F232BD1F241
S11332208F2D0E946816D6CF0F900F90DF91CF910B
S11332301F910F91FF900895CF93DF93EB010E94AC
S1133240DE16CE01DF91CF910C94A1180F931F933A
S1133250CF93DF938091D90C811122C081E08093B8
S1133260D90C8091DC0C811105C00E94A31701E0E8
S113327010E002C000E010E082E00E942C1683E11E
S113328090E00E94BD15C82FDD27C7FDD095AD97EE
S1133290012B11F00E94B9170E94C416CE0102C07E
S11332A080E090E0DF91CF911F910F9108950F93EB
S11332B01F93CF93DF931F92CDB7DEB78B016115B8
S11332C0710509F460C08E30910508F05FC0FC01FF
S11332D0E35BFF4F0C94822381E090E02091DC0CAF
S11332E0211147C080E090E044C08091DA0C9091B5
S11332F0DB0C3FC00E948D1827EE3FEFF8013183AD
S11333002083E1E7F2E020E030E0408150E03296B3
S11333108417950754F0F901EE0FFF1FE059FD4F94
S11333208081992787FD909524C02F5F3F4F2830D7
S1133330310559F725C08091D90C8F5F8093D90C42
S113334083E190E00E94BD1599830E94C41699817F
S1133350892F992787FD90958D970BC00E94261978
S113336008C08BE090E005C08AE190E002C087EEDF
S11333709FEFF8019183808303C0FB0111821082C7
S113338080E090E005C082E090E002C081E090E03F
S11333900F90DF91CF911F910F9108959091D90CC7
S11333A09F5F9093D90C60E0782F83E190E00E94B6
S11333B0D1150C94C41681309105B1F050F08630CB
S11333C09105D1F00797B9F5CB018D960E94CE19DE
S11333D02FC06130710519F40E94A31729C0672B0F
S11333E069F50E94B91724C0CB010B97409730F5BB
S11333F0CB010E940C181CC0CB0149964A97F0F4EB
S1133400E2E7F2E081E090E02081332727FD309568
S113341032962617370724F0019688309105A1F7D4
S1133420FC01EE0FFF1FE259FD4F81810E948418B9
S113343080E090E0089581E090E0089582E090E0DB
S11334400895CF93CFB7F8940E948F1A89B78F7BD2
S113345089BF8AB780638ABF80E488BFCFBFDD9A03
S11334608AEF90E00E943E06DE988FE790E00E948B
S11334703E06DE9A8DE790E00E943E0681E090E0F1
S11334800E94B71580E40E942C1681E190E00E940E
S1133490BD15BC016F7E777F606281E190E00E9480
S11334A0D11560E075E082E190E00E94D11587E1DA
S11334B090E00E94BD15BC01706287E190E00E941B
S11334C0D1156FE770E08CE190E00E94D11560E0C7
S11334D070E089E190E00E94D11560E070E08AE13B
S11334E090E00E94D11540E050E060E070E08FEF82
S11334F09FEF0E9436188AE190E00E940C1883ED39
S11335009FEF0E94CE190E949E1660E070E08EE646
S113351091E00E94950A81E090E0CF91089580B5F2
S1133520846080BD0E94F41ED69AD59ABF988E9866
S11335308C981698DE9AC09AC09A08951F920F929A
S11335400FB60F9211240BB60F922F933F934F9304
S11335505F936F937F938F939F93AF93BF93EF93F7
S1133560FF930E947318FF91EF91BF91AF919F91C8
S11335708F917F916F915F914F913F912F910F9018
S11335800BBE0F900FBE0F901F9018951F920F92B5
S11335900FB60F9211240BB60F922F933F934F93B4
S11335A05F936F937F938F939F93AF93BF93EF93A7
S11335B0FF93EDE7F0E08081817C80830E94C40A60
S11335C0FF91EF91BF91AF919F918F917F916F91F7
S11335D05F914F913F912F910F900BBE0F900FBEB3
S11335E00F901F9018959FB7F894EDE7F0E0808155
S11335F0817C8083ECE7F0E080818E63808310928D
S11336008B00EAE8F0E0108210928C00109289009E
S1133610109288008081856080839FBF08952FB7B2
S1133620F8949093870080938600ECE7F0E0808123
S11336308E638083EDE7F0E08081806180832FBF1B
S1133640089508950895CF92DF92EF92FF920F9319
S11336501F93CF93DF93EC010E94A61B87E090E0B9
S11336600E94A21BC880D980EA80FB800091E30CF1
S11336701091E40C2091E50C3091E60CC01AD10AAB
S1133680E20AF30AC60ED71EE81EF91EC882D982C2
S1133690EA82FB826093E30C7093E40C8093E50C64
S11336A09093E60C86E090E00E94A21BCC80DD8023
S11336B0EE80FF800091DF0C1091E00C2091E10C72
S11336C03091E20CC01AD10AE20AF30AC60ED71EE0
S11336D0E81EF91ECC82DD82EE82FF826093DF0C4D
S11336E07093E00C8093E10C9093E20CDF91CF9106
S11336F01F910F91FF90EF90DF90CF900895FC0100
S11337001482158216821782108211821282138209
S11337100895E7E4FFE0DC012D913C91119740818D
S11337205181240F351F31832083E9E4FFE014968F
S11337308D919C91159720813181820F931F9183E4
S11337408083089560E070E0CB0108950895CF93DD
S1133750DF93EC014A815B8160E070E08C819D81A4
S11337600E9459252A813B8188819981289FA00143
S1133770299F500D389F500D112460E070E08E8118
S11337809F81DF91CF910C945925FC018281938113
S113379020E030E028173907D1F0A481B581A20FC9
S11337A0B31F4C91411110C081E08C9380819181B1
S11337B0289FA001299F500D389F500D1124868108
S11337C09781840F951F08952F5F3F4FE3CF80E0CB
S11337D090E00895FC01268137814281538180E085
S11337E090E084179507C9F02617370781F4A48160
S11337F0B581A80FB91F2C91121614F421502C93E3
S11338000480F581E02DE80FF91F80810895A081DF
S1133810B1812A0F3B1F0196E4CF8FEF0895FC017D
S11338208681978168177907A0F0A081B1814281D0
S11338305381A49F9001A59F300DB49F300D112496
S1133840280F391F81E090E06217730720F080E0B1
S1133850089580E090E00895EF92FF920F931F93F4
S1133860CF93DF93EC018B017A010E94DB0BF88686
S1133870EF8260E872E0C801DF91CF911F910F9150
S1133880FF90EF900C94FF0B0C94E30B0C94810CC1
S1133890DC011796ED91FC9118970190F081E02DD1
S11338A0309709F009940895DC011796ED91FC9185
S11338B018970280F381E02D309709F00994089558
S11338C089EE9CE00C94070B9093E80C8093E70C32
S11338D0089589EE9CE00C940B0BEF92FF920F93EA
S11338E01F93CF93DF938C01EB017A0189EE9CE067
S11338F00E940B0B0097D9F0DC0112962D913C919C
S113390013972C173D0781F41696ED91FC911797A8
S1133910309769F09701AE01B801DF91CF911F9103
S11339200F91FF90EF9009940E94740BE3CFDF9105
S1133930CF911F910F91FF90EF9008950895CF9329
S1133940DF93CCE1DDE06881798120E030E04EEB6B
S11339505CE186E09DE00E94C0070E942207688126
S113396079810E946E2320E030E042ED5CE1BC01ED
S113397086EF9CE0DF91CF910C94C00780911C0DE1
S113398090911D0D20911A0D30911B0D880F991FD8
S11339902817390708F4C90190931D0D80931C0D55
S11339A00C949F1CCF93DF930E94DC0D0E94800D2A
S11339B0EC01198218820E94691C288139810097C0
S11339C019F1FC0140854423F9F0FC014281538143
S11339D0F901EE0FFF1FEE0FFF1FEC0FFD1F5383C6
S11339E04283FC01448155812F5F3F4FF901EE0F63
S11339F0FF1FEE0FFF1FEC0FFD1F51834083398320
S1133A0028830E94740BD9CFC901880F991F880F8E
S1133A10991F02960E947B0D88819981892B31F030
S1133A208BEE9CE0DF91CF910C94C90BDF91CF9189
S1133A300895AF92BF92CF92DF92EF92FF920F93CD
S1133A401F93CF93DF9300D0CDB7DEB75B010E9405
S1133A50800D8C01FC01E080F180FA82E9820E94F1
S1133A608D0D9701220F331F220F331F2E5F3F4FFF
S1133A7082179307A8F00E5F1F4FC12CD12CCE14D0
S1133A80DF0471F0F8014281538160817181C501C5
S1133A900E946D1C0C5F1F4FFFEFCF1ADF0AEFCFA0
S1133AA00F900F90DF91CF911F910F91FF90EF90A6
S1133AB0DF90CF90BF90AF9008950F93013059F4E9
S1133AC08091160D9091170D90931D0D80931C0DF0
S1133AD00F910C949F1C0F910895EF92FF920F93F6
S1133AE01F93CF93DF938B01EA01790142E852E0FF
S1133AF0BC018BEE9CE00E94AD0B1093170D00935C
S1133B00160DD093190DC093180DF0921B0DE09271
S1133B101A0D8DE59DE1DF91CF911F910F91FF90DB
S1133B20EF900C94641C0C94D70BE0918E02F091EE
S1133B308F020995009739F0FC012281338130937B
S1133B403C0F20933B0F0895CF93DF93EC01E0915A
S1133B509002F091910209952A813B8130933C0FA8
S1133B6020933B0F21E030E0892B11F420E030E07A
S1133B70C901DF91CF910895E0919202F0919302EF
S1133B800994CF92DF92EF92FF920F931F93CF93FA
S1133B90DF93CDB7DEB7E1970FB6F894DEBF0FBE63
S1133BA0CDBF7C018E010F5F1F4F81E3F80111929D
S1133BB08A95E9F78091200D811107C081E08093F7
S1133BC0200D0E9422078093210D8091610F898B23
S1133BD080915F0F8B8B0E94400E892B11F01C8A01
S1133BE003C080914F0F8C8B1D8A21E02F8BE11431
S1133BF0F104D1F080914D0F90914E0F009711F088
S1133C00898F12C08091210D811102C02093210D52
S1133C108091210D91E0980F9093210D898F90E070
S1133C2090934E0F80934D0F82E0D82ED88E8DEC5A
S1133C309BEA9B8F8A8F0E94400E892B29F0DE8A93
S1133C408FEF89838A8306C063E37FE0C8010E9403
S1133C50EA0CDE8A8DEC9BEA9D8F8C8F6FE27FE00D
S1133C60CE0109960E94EA0C0E94800D9FA78EA7A0
S1133C700E948D0D99AB88ABC8010E94A6216C01EE
S1133C80EF2871F00E94A50D892B41F00E94870D49
S1133C90BC01C8010E94C921C60102C08FEF9FEF79
S1133CA0E1960FB6F894DEBF0FBECDBFDF91CF9182
S1133CB01F910F91FF90EF90DF90CF90089581E0D6
S1133CC090E00C94C11D80E090E00C94C11D0F9312
S1133CD01F93CF93DF93CDB7DEB7E1970FB6F89478
S1133CE0DEBF0FBECDBF0E948D0D8C010E94800DE2
S1133CF0AE014F5F5F4FB8010E949F228C01009775
S1133D0019F48FEF9FEF4BC00E945E0D892BC9F30E
S1133D10898990E09093620F8093610F2E8922230A
S1133D2031F18A8D9B8D8D3C3BEA930711F001960E
S1133D3041F7223019F028E030E002C022E030E000
S1133D4021503109C90101961816190684F4E1E0DD
S1133D50F0E0EC0FFD1FE20FF31F80818F3F81F332
S1133D60BE016F5F7F4F83E39FE00E94EA0CBE01B8
S1133D70675F7F4F81E39FE00E94EA0C8B8990E0AC
S1133D809093600F80935F0F898D90E090934E0F16
S1133D9080934D0F9093560F8093550FC801E19671
S1133DA00FB6F894DEBF0FBECDBFDF91CF911F9148
S1133DB00F910895CF93DF93E0918802F0918902E7
S1133DC00995EC0197FD0CC00E94020DE0914E0292
S1133DD0F0914F020995892B19F48FEF9FEF01C0E1
S1133DE0CE01DF91CF91089587B3876087BB88B3F5
S1133DF0866088BB80E58DB981E08EB9089520E0A6
S1133E0030E00296FC0132974081442331F0FC01FA
S1133E1031974081240F311DF4CFC9010895FC016D
S1133E20208130E0322F22278181282B02C0220FEB
S1133E30331F6A95E2F7832F9927FA01EC56FD4F59
S1133E40208130E08223932328E030E0241B350BCB
S1133E5002C0969587952A95E2F708956F927F920E
S1133E608F929F92AF92BF92CF92DF92EF92FF9286
S1133E700F931F93CF93DF938C01EB016A017901B8
S1133E802830310524F4A901B601CE014AC05901F4
S1133E9023E0B594A7942A95E1F74115510521F043
S1133EA04801612C712C03C0D801FB0120C048E0FB
S1133EB050E0B601CE01860D971D0E940F1FF4013C
S1133EC081934F01FFEF6F1A7F0A6A147B047CF31E
S1133ED0C501B7FE02C080E090E0A70147705527F6
S1133EE04115510511F1080F191FB60118C0CF0172
S1133EF08C1B9D0B8A159B051CF481918D93F7CF28
S1133F00C501B7FE02C080E090E0A70147705527C5
S1133F104115510551F0080F191F60E070E08C0F36
S1133F209D1F0E940F1FF8018083DF91CF911F9185
S1133F300F91FF90EF90DF90CF90BF90AF909F9044
S1133F408F907F906F9008958F929F92AF92BF92BF
S1133F50CF92DF92EF92FF920F931F93CF93DF9351
S1133F6000D0CDB7DEB70E94800D8C0182E090E0D6
S1133F700E945E0D892B19F480E090E06BC0D8019B
S1133F8011968C91119790E0982F88272C91820F8D
S1133F90911D0E94E80B7C01009771F30E94800D33
S1133FA04C01F7012681822F86958695869590E0AF
S1133FB0422F477021E030E011F420E030E0820F1E
S1133FC0931F0E945E0D892BB9F2D70114960D91AF
S1133FD01C911597C12CD12CF80180818823C9F13B
S1133FE0F801A180B12CB60153E0759567955A95F7
S1133FF0E1F7A60147705527680D791D8A3190F0C5
S11340009501CE0101960E942E1FD8018C9190E05B
S1134010880F991FBE016F5F7F4F8350914F0E949D
S1134020EA0C12C01A8219829501CE0101960E94EF
S11340302E1FD801EC91F0E0EE0FFF1FE75CF04F6C
S113404089819A8191838083CA0CDB1C0E5F1F4F88
S1134050C3CFC7010F900F90DF91CF911F910F91A4
S1134060FF90EF90DF90CF90BF90AF909F908F9094
S11340700895DC0150E0E0E1F0E0E61BF70BE21B01
S1134080F30B02C0440F551FEA95E2F78C91852B80
S11340908C9311968C911197842B11968C9308957F
S11340A06F927F928F929F92AF92BF92CF92DF9244
S11340B0EF92FF920F931F93CF93DF938C016B01C9
S11340C0EA017901283031051CF44881C8015CC03B
S11340D0390173E0759467947A95E1F7C114D104BA
S11340E021F04A01A12CB12C03C0D801FA0127C048
S11340F0F40141914F0128E030E0B601C8018A0D76
S11341009B1D0E943920FFEFAF1ABF0AA614B70403
S11341107CF3C30177FE02C080E090E09701277032
S113412033272115310509F43FC0C80FD91F488131
S113413050E0B601621B730B685F7F4F1CC0CF0158
S11341408C1B9D0B861597051CF481918D93F7CFDD
S1134150C30177FE02C080E090E097012770332707
S11341602115310509F1C80FD91F488150E068E0D5
S113417070E0621B730B02C0559547956A95E2F790
S113418060E070E0800F911FDF91CF911F910F913C
S1134190FF90EF90DF90CF90BF90AF909F908F9063
S11341A07F906F900C943920DF91CF911F910F91E4
S11341B0FF90EF90DF90CF90BF90AF909F908F9043
S11341C07F906F900895AF92BF92CF92DF92EF925B
S11341D0FF920F931F93CF93DF9300D0CDB7DEB739
S11341E08C01FC018681E82EE694E694E694F12C99
S11341F0282F277081E090E011F480E090E0E80E31
S1134200F91EC70102960E94A50D009709F44AC041
S11342100E94870DF8012281FC012083F80123818B
S1134220FC0121830E94870D02966C01A70160E0C6
S113423070E00E945925F80104811581E12CF12CCC
S1134240F8012081222361F1F801A180B12CC7017A
S113425033E0959587953A95E1F7422F50E0B70101
S1134260677077278C0D9D1D2A3130F0440F551F40
S11342704350514F95010DC0FA01EE0FFF1FE75C4B
S1134280F04F208131813A8329839501AE014F5F3C
S11342905F4F0E945020EA0CFB1C0E5F1F4FD0CFD3
S11342A081E090E00F900F90DF91CF911F910F91DB
S11342B0FF90EF90DF90CF90BF90AF900895CF9391
S11342C0DF93FC01DB0185E0EB0119928A95E9F7A4
S11342D08589837011F082E08C938789837021F043
S11342E082E012968C9312978589837081F0878976
S11342F0837069F0238D348D818D928D2817390751
S113430031F481E0848B12961C92129701C0148AB6
S113431085898370823021F0833021F080E003C0EE
S113432082E001C088E011968C931197878983708D
S1134330823021F0833021F080E003C082E001C0AC
S113434088E013968C93DF91CF910895CF93DF93F8
S113435000D000D01F92CDB7DEB7BE016F5F7F4F94
S11343600E945F21898190E003962A81820F911D2A
S11343702B81820F911D2C81820F911D2D81820F23
S1134380911D0F900F900F900F900F90DF91CF9190
S113439008956F927F928F929F92AF92BF92CF9225
S11343A0DF92EF92FF920F931F93CF93DF9300D08E
S11343B000D01F92CDB7DEB78C017B01BE016F5FC9
S11343C07F4F0E945F21D80151968C91519780FBB9
S11343D0662460F8712C83E0660C771C8A95E1F7FB
S11343E052968C91529780FB882480F8912C94E00B
S11343F0880C991C9A95E1F7862850968C915097D1
S11344008770882A53968C91539780FBAA24A0F82E
S1134410B12C25E0AA0CBB1C2A95E1F78A285496F6
S11344208C91549780FBCC24C0F8D12C36E0CC0C72
S1134430DD1C3A95E1F78C28F701808255962C9182
S113444055972370F4E02F9F9001112456968C9178
S11344505697837040E1849FC0011124282B5796FE
S11344608C91A0E48A9FC0011124282BF701218399
S1134470D80158968C91589782838981823049F467
S113448059968C91599783835A968C91848375E0BD
S113449001C073E06A8150E080E090E09801260F4B
S11344A0311D452F470F0197561751F0F901E80FB9
S11344B0F91FA081F701E40FF11DA0835F5FF1CF25
S11344C08B81823089F4F701E40FF11DD8015B96EA
S11344D08C915B97808381E0840FF701E80FF11DD5
S11344E04E5F5C968C9180836C8150E020E030E0DC
S11344F0060F111D21503109852F840F90E05617A6
S113450051F0F801E20FF31F7085F701E80FF91F6E
S113451070835F5FEFCF0F900F900F900F900F900D
S1134520DF91CF911F910F91FF90EF90DF90CF908B
S1134530BF90AF909F908F907F906F900895AF92AF
S1134540BF92CF92DF92EF92FF920F931F93CF937C
S1134550DF937C016B01EA01633071050CF4AFC099
S1134560FC01808186FBAA24A0F89181292F26953D
S113457026952370B92EB294B694B69463E0B6220D
S1134580382F3770388B83FB332730F9398B84FB12
S1134590332730F93A8B85FB882780F98B8BAC8ADB
S11345A02D8B892F829583708E8BBF8A8281888F11
S11345B0222371F13381848190E0982F8827830F1F
S11345C0911D9A8F898F87010B5F1F4F223071F4E1
S11345D064E172E0CE010E94EA0CF70186818883CF
S11345E0858189838701095F1F4F1CC02330D1F463
S11345F0F7013D96DE0180E090E03E2F2F2F42919F
S11346004D93019688309105D1F7032F122F0AC0DC
S113461087010D5F1F4F64E172E0CA010E94EA0C3A
S11346201A8E198EBB20B1F1A1100DC0F8012081A2
S1134630818190E0982F8827820F911D9C8F8B8F0A
S11346400E5F1F4F04C0898D9A8D9C8F8B8FF2E073
S1134650BF120EC064E172E0CE0108960E94EA0C1B
S1134660F80181818887808189870E5F1F4F1AC076
S1134670F3E0BF1217C087E090E0F801E80FF91FDC
S11346802081FE01E81BF90B27870197B0F7085F2B
S11346901F4F08C064E172E0CE0108960E94EA0C44
S11346A01C8E1B8E98012E193F09C601821B930B89
S11346B098AB8FA71EA70DA7C216D3061CF480E0E3
S11346C090E001C0C901DF91CF911F910F91FF903C
S11346D0EF90DF90CF90BF90AF900895AA1BBB1BC3
S11346E051E107C0AA1FBB1FA617B70710F0A61BEE
S11346F0B70B881F991F5A95A9F780959095BC010F
S1134700CD010895EE0FFF1F0590F491E02D09945B
S1134710CF93DF938230910510F482E090E0E09132
S1134720860FF091870F20E030E0A0E0B0E03097F2
S113473039F14081518148175907B8F04817590792
S113474071F482819381109729F013969C938E9330
S113475012972CC09093870F8093860F27C0211542
S1134760310531F04217530718F0A901DB0101C0EC
S1134770EF019A01BD01DF010280F381E02DD7CF63
S113478021153105F9F0281B390B2430310580F44B
S11347908A819B816115710521F0FB0193838283DA
S11347A004C09093870F8093860FFE01329644C015
S11347B0FE01E20FF31F8193919322503109398353
S11347C028833AC02091840F3091850F232B41F424
S11347D020910201309103013093850F2093840FBF
S11347E020910001309101012115310541F42DB7CB
S11347F03EB74091040150910501241B350BE09113
S1134800840FF091850FE217F307A0F42E1B3F0BE2
S11348102817390778F0AC014E5F5F4F241735072E
S113482048F04E0F5F1F5093850F4093840F819380
S1134830919302C0E0E0F0E0CF01DF91CF910895C1
S1134840CF93DF93009709F487C0FC01329713825A
S11348501282C091860FD091870F209781F4208116
S11348603181280F391F8091840F9091850F821711
S1134870930779F5F093850FE093840F6DC0DE0103
S113488020E030E0AE17BF0750F412964D915C91D2
S113489013979D014115510509F1DA01F3CFB38353
S11348A0A28340815181840F951F8A179B0771F45D
S11348B08D919C911197840F951F0296918380830B
S11348C012968D919C9113979383828321153105C0
S11348D029F4F093870FE093860F3EC0D901139615
S11348E0FC93EE9312974D915D91A40FB51FEA17B7
S11348F0FB0779F480819181840F951F0296D90179
S113490011969C938E938281938113969C938E939C
S11349101297E0E0F0E08A819B81009719F0FE0194
S1134920EC01F9CFCE01029628813981820F931FC1
S11349302091840F3091850F2817390769F4309737
S113494029F41092870F1092860F02C013821282EC
S1134950D093850FC093840FDF91CF9108958F92E8
S11349609F92AF92BF92CF92DF92EF92FF92CF933A
S1134970DF93EC01688179818A819B8161157105DE
S11349808105910521F464E279ED8BE597E02DE151
S113499033EF41E050E00E94DF2849015A019B01B6
S11349A0AC01A7EAB1E40E94CC286B017C01ACEE17
S11349B0B4EFA50194010E94DA28C60ED71EE81EA2
S11349C0F91EF7FE06C081E0C81AD108E10880E8A4
S11349D0F80AC882D982EA82FB82C6019F77DF91F6
S11349E0CF91FF90EF90DF90CF90BF90AF909F90CA
S11349F08F9008950C94AF2486E091E00C94AF243A
S1134A00A0E0B0E08093060190930701A093080111
S1134A10B09309010895FC0188279927E89421910E
S1134A202032E9F3293010F02E30C8F32B3241F054
S1134A302D3239F4689404C00E949325820F911D8D
S1134A40219120532A30C0F31EF4909581959F4FF5
S1134A5008950F931F93CF93DF938C01FC01019072
S1134A600020E9F7CF01801B910B0E948823EC0101
S1134A70009719F0B8010E947425CE01DF91CF91FF
S1134A801F910F910895FB01DC0104C08D910190E9
S1134A90801921F441505040C8F7881B990B0895A0
S1134AA0FB01DC0102C001900D9241505040D8F747
S1134AB00895DC0101C06D9341505040E0F7089522
S1134AC0FB01DC010D900020E9F7119701900D9294
S1134AD00020E1F70895FB01DC018D91019080191C
S1134AE00110D9F3990B0895FB01DC0101900D929B
S1134AF00020E1F70895FC01A081B181AD01109679
S1134B0081F03D91FB01019003160110E1F7C9F713
S1134B10002011F4D00102C01E921196FC01A08362
S1134B20B183CA0108957AE0979F902D879F802DC5
S1134B30910D11240895CF93DF93CDB7DEB7FE0115
S1134B40359661917191AF0180918A0F90918B0F8D
S1134B500E940426DF91CF9108950F931F93CF9362
S1134B60DF93CDB7DEB7FE013796619171910AE804
S1134B701FE0D8018D919C91DC0113962C91139721
S1134B80286013962C93AF010E940426D801ED915E
S1134B90FC912381277F2383DF91CF911F910F9174
S1134BA0089560918A0F70918B0F0C943C280F9399
S1134BB01F93CF93DF93E0918A0FF0918B0F2381A2
S1134BC021FF1BC0EC0100E010E0899160918A0F85
S1134BD070918B0FDB011896ED91FC911997882346
S1134BE031F00995892B89F30FEF1FEFEECF8AE09F
S1134BF00995892B11F4C80102C08FEF9FEFDF9153
S1134C00CF911F910F9108952F923F924F925F92EF
S1134C106F927F928F929F92AF92BF92CF92DF92C8
S1134C20EF92FF920F931F93CF93DF93CDB7DEB72D
S1134C302C970FB6F894DEBF0FBECDBF7C016B017D
S1134C408A01FC0117821682838181FFBDC1CE01D6
S1134C5001964C01F7019381F60193FD859193FF31
S1134C6081916F01882309F4ABC1853239F493FD36
S1134C70859193FF81916F01853229F4B70190E00A
S1134C800E943C28E7CF512C312C20E02032A0F4A4
S1134C908B3269F030F4803259F0833269F4206148
S1134CA02CC08D3239F0803339F4216026C0226063
S1134CB0246023C0286021C027FD27C030ED380FB1
S1134CC03A3078F426FF06C0FAE05F9E300D1124D6
S1134CD0532E13C08AE0389E300D1124332E2062E7
S1134CE00CC08E3221F426FD6BC1206406C08C36C4
S1134CF011F4206802C0883641F4F60193FD8591D1
S1134D0093FF81916F018111C1CF982F9F7D95549D
S1134D10933028F40C5F1F4FFFE3F9830DC08336F3
S1134D2031F0833771F0833509F05BC022C0F8019C
S1134D30808189830E5F1F4F44244394512C540176
S1134D4015C03801F2E06F0E711CF801A080B1802B
S1134D5026FF03C0652D70E002C06FEF7FEFC50131
S1134D602C870E9431282C0183012C852F77222E39
S1134D7017C03801F2E06F0E711CF801A080B180F9
S1134D8026FF03C0652D70E002C06FEF7FEFC50101
S1134D902C870E9426282C012C852068222E830132
S1134DA023FC1BC0832D90E048165906B0F4B701CC
S1134DB080E290E00E943C283A94F4CFF50127FC6D
S1134DC0859127FE81915F01B70190E00E943C2804
S1134DD031103A94F1E04F1A51084114510471F71B
S1134DE0E5C0843611F0893639F5F80127FF07C08C
S1134DF060817181828193810C5F1F4F08C0608143
S1134E007181882777FD8095982F0E5F1F4F2F762D
S1134E10B22E97FF09C090958095709561957F4F4C
S1134E208F4F9F4F2068B22E2AE030E0A4010E94E9
S1134E306E28A82EA81844C0853729F42F7EB22ED8
S1134E402AE030E025C0F22FF97FBF2E8F36C1F063
S1134E5018F4883579F0B4C0803719F0883721F018
S1134E60AFC02F2F2061B22EB4FE0DC08B2D8460F5
S1134E70B82E09C024FF0AC09F2F9660B92E06C021
S1134E8028E030E005C020E130E002C020E132E05B
S1134E90F801B7FE07C060817181828193810C5F44
S1134EA01F4F06C06081718180E090E00E5F1F4F4C
S1134EB0A4010E946E28A82EA818FB2DFF77BF2EF0
S1134EC0B6FE0BC02B2D2E7FA51450F4B4FE0AC0E1
S1134ED0B2FC08C02B2D2E7E05C07A2C2B2D03C0CE
S1134EE07A2C01C0752C24FF0DC0FE01EA0DF11DC2
S1134EF08081803311F4297E09C022FF06C0739497
S1134F00739404C0822F867809F0739423FD13C030
S1134F1020FF06C05A2C731418F4530C5718732C22
S1134F20731468F4B70180E290E02C870E943C2857
S1134F3073942C85F5CF731410F4371801C0312CF9
S1134F4024FF12C0B70180E390E02C870E943C2824
S1134F502C8522FF17C021FF03C088E590E002C022
S1134F6088E790E0B7010CC0822F867859F021FDC4
S1134F7002C080E201C08BE227FD8DE2B70190E020
S1134F800E943C28A51438F4B70180E390E00E9405
S1134F903C285A94F7CFAA94F401EA0DF11D8081BC
S1134FA0B70190E00E943C28A110F5CF332009F40A
S1134FB051CEB70180E290E00E943C283A94F6CFAB
S1134FC0F7018681978102C08FEF9FEF2C960FB671
S1134FD0F894DEBF0FBECDBFDF91CF911F910F912B
S1134FE0FF90EF90DF90CF90BF90AF909F908F9005
S1134FF07F906F905F904F903F902F900895DC01C9
S1135000CB01FC01E199FECF06C0FFBBEEBBE09AE9
S113501031960DB20D9241505040B8F70895DC011D
S1135020CB0103C02D910E941A2841505040D0F763
S11350300895262FE199FECF9FBB8EBB2DBB0FB6E3
S1135040F894E29AE19A0FBE01960895FC01059046
S1135050615070400110D8F7809590958E0F9F1F76
S11350600895FC016150704001900110D8F78095BB
S113507090958E0F9F1F08950F931F93CF93DF93E7
S1135080182F092FEB018B8181FD03C08FEF9FEF58
S113509020C082FF10C04E815F812C813D81421768
S11350A053077CF4E881F9819F012F5F3F4F3983D7
S11350B02883108306C0E885F985812F0995892BFB
S11350C029F72E813F812F5F3F4F3F832E83812F0E
S11350D0902FDF91CF911F910F910895FA01AA2784
S11350E0283051F1203181F1E8946F936E7F6E5F27
S11350F07F4F8F4F9F4FAF4FB1E03ED0B4E03CD0D5
S1135100670F781F891F9A1FA11D680F791F8A1FB7
S1135110911DA11D6A0F711D811D911DA11D20D01E
S113512009F468943F912AE0269F11243019305DD8
S11351303193DEF6CF010895462F4770405D4193C9
S1135140B3E00FD0C9F7F6CF462F4F70405D4A3316
S113515018F0495D31FD4052419302D0A9F7EACFDE
S1135160B4E0A6959795879577956795BA95C9F70D
S113517000976105710508959B01AC010A2E069400
S11351805795479537952795BA95C9F7620F731FB9
S1135190841F951FA01D08950E94FE28A59F900DB1
S11351A0B49F900DA49F800D911D11240895B7FF05
S11351B00C94CC280E94CC28821B930B0895052EB6
S11351C097FB1EF400940E94F62857FD07D00E9416
S11351D00D2907FC03D04EF40C94F6285095409505
S11351E0309521953F4F4F4F5F4F0895909580958F
S11351F0709561957F4F8F4F9F4F0895A29FB00187
S1135200B39FC001A39F700D811D1124911DB29FF6
S1135210700D811D1124911D0895A1E21A2EAA1B5F
S1135220BB1BFD010DC0AA1FBB1FEE1FFF1FA21752
S1135230B307E407F50720F0A21BB30BE40BF50B4F
S1135240661F771F881F991F1A9469F760957095D8
S1135250809590959B01AC01BD01CF010895F89410
S1055260FFCF7A
S113526200008E0F20000100000000002D0300004A
S113527200000000000200000000370400000000EB
S1135282000050070000000000003A08000000007F
S1135292BE000800C20BD20502000800DA0BCA0BDA
S11352A2050008000F0CE70B06000800470C170C5A
S11352B21A000200830C4F0C0700050003000600CD
S11352C20400C20CAA0C2D0057030B042700000093
S11352D274170000000025642F25730A0068656CAA
S11352E26C6F5F636F6F7264696E61746F72006F6B
S11352F26B006C655374617475735F6D6F74657361
S113530200636F6E666967757261007374617274AB
S11353120073746F700062726F6164636173745FAF
S1135322737461747573007374617475735F6D6FF4
S113533274653A0025642C0066696D002F00300004
S1135342737461727461646F732000D5000000D8B5
S11353520000000A010000890B7D0B1A10000052A4
S1135362696D6500FF016F0C3D0CA30C970C1B10BB
S11353721A100000000043534D41001602560FC29A
S11353820FD50EDA0EDF0EE40E43582D4D414300C5
S11353922902DF117212CA14EE14F611BF11891117
S11353A26E756C6C7365630040027E1580158B15F7
S11353B28E159315211ADE16A1181C190D17D8176C
S11353C277167C16A317B9175719DB19B115B4153B
S11353D2001FFF1BFD17FB13F90FF60BF107E70381
S11353E20000191D9E1C631E5F1EDA1E671EA41F89
S11153F2E320FF1E0080C0E0F0F8FCFEFF0088
S9030000FC
